{
  "address": "0xd1DBEE5d30eDAac4A4340358E269E7F14E09E26E",
  "abi": [
    {
      "inputs": [
        {
          "internalType": "uint256",
          "name": "totalSupply_",
          "type": "uint256"
        }
      ],
      "stateMutability": "nonpayable",
      "type": "constructor"
    },
    {
      "anonymous": false,
      "inputs": [
        {
          "indexed": true,
          "internalType": "address",
          "name": "owner",
          "type": "address"
        },
        {
          "indexed": true,
          "internalType": "address",
          "name": "spender",
          "type": "address"
        },
        {
          "indexed": false,
          "internalType": "uint256",
          "name": "value",
          "type": "uint256"
        }
      ],
      "name": "Approval",
      "type": "event"
    },
    {
      "anonymous": false,
      "inputs": [
        {
          "indexed": true,
          "internalType": "address",
          "name": "previousOwner",
          "type": "address"
        },
        {
          "indexed": true,
          "internalType": "address",
          "name": "newOwner",
          "type": "address"
        }
      ],
      "name": "OwnershipTransferred",
      "type": "event"
    },
    {
      "anonymous": false,
      "inputs": [
        {
          "indexed": true,
          "internalType": "address",
          "name": "from",
          "type": "address"
        },
        {
          "indexed": true,
          "internalType": "address",
          "name": "to",
          "type": "address"
        },
        {
          "indexed": false,
          "internalType": "uint256",
          "name": "value",
          "type": "uint256"
        }
      ],
      "name": "Transfer",
      "type": "event"
    },
    {
      "anonymous": false,
      "inputs": [
        {
          "indexed": false,
          "internalType": "address",
          "name": "addr",
          "type": "address"
        },
        {
          "components": [
            {
              "internalType": "uint8",
              "name": "id",
              "type": "uint8"
            },
            {
              "internalType": "uint32",
              "name": "timelockUntil",
              "type": "uint32"
            },
            {
              "internalType": "uint16",
              "name": "vestingDurationDays",
              "type": "uint16"
            },
            {
              "internalType": "uint16",
              "name": "vestingStartsAfterDays",
              "type": "uint16"
            },
            {
              "internalType": "uint16",
              "name": "percUnlockedAtTimeUnlock",
              "type": "uint16"
            },
            {
              "internalType": "uint96",
              "name": "tokens",
              "type": "uint96"
            },
            {
              "internalType": "bool",
              "name": "isPool",
              "type": "bool"
            }
          ],
          "indexed": false,
          "internalType": "struct AIOW.TransferRuleInbound",
          "name": "rule",
          "type": "tuple"
        }
      ],
      "name": "TransferRuleInboundRegistered",
      "type": "event"
    },
    {
      "anonymous": false,
      "inputs": [
        {
          "indexed": false,
          "internalType": "address",
          "name": "addr",
          "type": "address"
        },
        {
          "components": [
            {
              "internalType": "uint8",
              "name": "id",
              "type": "uint8"
            },
            {
              "internalType": "uint32",
              "name": "timelockUntil",
              "type": "uint32"
            },
            {
              "internalType": "uint16",
              "name": "vestingDurationDays",
              "type": "uint16"
            },
            {
              "internalType": "uint16",
              "name": "vestingStartsAfterDays",
              "type": "uint16"
            },
            {
              "internalType": "uint16",
              "name": "percUnlockedAtTimeUnlock",
              "type": "uint16"
            }
          ],
          "indexed": false,
          "internalType": "struct AIOW.TransferRuleOutbound",
          "name": "rule",
          "type": "tuple"
        }
      ],
      "name": "TransferRuleOutboundRegistered",
      "type": "event"
    },
    {
      "inputs": [],
      "name": "SECONDS_IN_ONE_DAY",
      "outputs": [
        {
          "internalType": "uint256",
          "name": "",
          "type": "uint256"
        }
      ],
      "stateMutability": "view",
      "type": "function"
    },
    {
      "inputs": [
        {
          "internalType": "address",
          "name": "owner_",
          "type": "address"
        },
        {
          "internalType": "address",
          "name": "spender_",
          "type": "address"
        }
      ],
      "name": "allowance",
      "outputs": [
        {
          "internalType": "uint256",
          "name": "",
          "type": "uint256"
        }
      ],
      "stateMutability": "view",
      "type": "function"
    },
    {
      "inputs": [
        {
          "internalType": "address",
          "name": "spender_",
          "type": "address"
        },
        {
          "internalType": "uint256",
          "name": "amount_",
          "type": "uint256"
        }
      ],
      "name": "approve",
      "outputs": [
        {
          "internalType": "bool",
          "name": "",
          "type": "bool"
        }
      ],
      "stateMutability": "nonpayable",
      "type": "function"
    },
    {
      "inputs": [
        {
          "internalType": "address",
          "name": "account_",
          "type": "address"
        }
      ],
      "name": "balanceOf",
      "outputs": [
        {
          "internalType": "uint256",
          "name": "",
          "type": "uint256"
        }
      ],
      "stateMutability": "view",
      "type": "function"
    },
    {
      "inputs": [
        {
          "internalType": "address",
          "name": "account_",
          "type": "address"
        }
      ],
      "name": "balanceStatsOf",
      "outputs": [
        {
          "internalType": "uint256",
          "name": "balanceTotal",
          "type": "uint256"
        },
        {
          "internalType": "uint256",
          "name": "balanceLocked",
          "type": "uint256"
        },
        {
          "internalType": "uint256",
          "name": "balanceUnlocked",
          "type": "uint256"
        }
      ],
      "stateMutability": "view",
      "type": "function"
    },
    {
      "inputs": [
        {
          "internalType": "address",
          "name": "account_",
          "type": "address"
        }
      ],
      "name": "calcBalanceLocked",
      "outputs": [
        {
          "internalType": "uint256",
          "name": "",
          "type": "uint256"
        }
      ],
      "stateMutability": "view",
      "type": "function"
    },
    {
      "inputs": [
        {
          "internalType": "address",
          "name": "account_",
          "type": "address"
        }
      ],
      "name": "calcBalanceUnlocked",
      "outputs": [
        {
          "internalType": "uint256",
          "name": "",
          "type": "uint256"
        }
      ],
      "stateMutability": "view",
      "type": "function"
    },
    {
      "inputs": [],
      "name": "decimals",
      "outputs": [
        {
          "internalType": "uint8",
          "name": "",
          "type": "uint8"
        }
      ],
      "stateMutability": "view",
      "type": "function"
    },
    {
      "inputs": [
        {
          "internalType": "address",
          "name": "spender_",
          "type": "address"
        },
        {
          "internalType": "uint256",
          "name": "subtractedValue_",
          "type": "uint256"
        }
      ],
      "name": "decreaseAllowance",
      "outputs": [
        {
          "internalType": "bool",
          "name": "",
          "type": "bool"
        }
      ],
      "stateMutability": "nonpayable",
      "type": "function"
    },
    {
      "inputs": [
        {
          "internalType": "address",
          "name": "_a",
          "type": "address"
        }
      ],
      "name": "getInboundTransferRules",
      "outputs": [
        {
          "components": [
            {
              "internalType": "uint8",
              "name": "id",
              "type": "uint8"
            },
            {
              "internalType": "uint32",
              "name": "timelockUntil",
              "type": "uint32"
            },
            {
              "internalType": "uint16",
              "name": "vestingDurationDays",
              "type": "uint16"
            },
            {
              "internalType": "uint16",
              "name": "vestingStartsAfterDays",
              "type": "uint16"
            },
            {
              "internalType": "uint16",
              "name": "percUnlockedAtTimeUnlock",
              "type": "uint16"
            },
            {
              "internalType": "uint96",
              "name": "tokens",
              "type": "uint96"
            },
            {
              "internalType": "bool",
              "name": "isPool",
              "type": "bool"
            }
          ],
          "internalType": "struct AIOW.TransferRuleInbound[]",
          "name": "",
          "type": "tuple[]"
        }
      ],
      "stateMutability": "view",
      "type": "function"
    },
    {
      "inputs": [
        {
          "internalType": "address",
          "name": "account_",
          "type": "address"
        },
        {
          "internalType": "uint256",
          "name": "ruleId_",
          "type": "uint256"
        }
      ],
      "name": "inboundRuleStatsOf",
      "outputs": [
        {
          "internalType": "uint256",
          "name": "ruleBalanceTotal",
          "type": "uint256"
        },
        {
          "internalType": "uint256",
          "name": "ruleBalanceLocked",
          "type": "uint256"
        },
        {
          "internalType": "uint256",
          "name": "ruleBalanceUnlocked",
          "type": "uint256"
        }
      ],
      "stateMutability": "view",
      "type": "function"
    },
    {
      "inputs": [
        {
          "internalType": "address",
          "name": "spender_",
          "type": "address"
        },
        {
          "internalType": "uint256",
          "name": "addedValue_",
          "type": "uint256"
        }
      ],
      "name": "increaseAllowance",
      "outputs": [
        {
          "internalType": "bool",
          "name": "",
          "type": "bool"
        }
      ],
      "stateMutability": "nonpayable",
      "type": "function"
    },
    {
      "inputs": [],
      "name": "name",
      "outputs": [
        {
          "internalType": "string",
          "name": "",
          "type": "string"
        }
      ],
      "stateMutability": "view",
      "type": "function"
    },
    {
      "inputs": [],
      "name": "owner",
      "outputs": [
        {
          "internalType": "address",
          "name": "",
          "type": "address"
        }
      ],
      "stateMutability": "view",
      "type": "function"
    },
    {
      "inputs": [
        {
          "internalType": "address",
          "name": "account_",
          "type": "address"
        },
        {
          "internalType": "enum AIOW.TransferRuleType",
          "name": "ruleType",
          "type": "uint8"
        },
        {
          "internalType": "uint32",
          "name": "timelockUntil_",
          "type": "uint32"
        },
        {
          "internalType": "uint16",
          "name": "vestingStartsAfterDays_",
          "type": "uint16"
        },
        {
          "internalType": "uint16",
          "name": "vestingDurationDays_",
          "type": "uint16"
        },
        {
          "internalType": "uint16",
          "name": "percUnlockedAtTimeUnlock_",
          "type": "uint16"
        },
        {
          "internalType": "bool",
          "name": "isPool_",
          "type": "bool"
        }
      ],
      "name": "registerTransferRule",
      "outputs": [],
      "stateMutability": "nonpayable",
      "type": "function"
    },
    {
      "inputs": [],
      "name": "renounceOwnership",
      "outputs": [],
      "stateMutability": "nonpayable",
      "type": "function"
    },
    {
      "inputs": [],
      "name": "symbol",
      "outputs": [
        {
          "internalType": "string",
          "name": "",
          "type": "string"
        }
      ],
      "stateMutability": "view",
      "type": "function"
    },
    {
      "inputs": [],
      "name": "totalSupply",
      "outputs": [
        {
          "internalType": "uint256",
          "name": "",
          "type": "uint256"
        }
      ],
      "stateMutability": "view",
      "type": "function"
    },
    {
      "inputs": [
        {
          "internalType": "address",
          "name": "recipient_",
          "type": "address"
        },
        {
          "internalType": "uint256",
          "name": "amount_",
          "type": "uint256"
        }
      ],
      "name": "transfer",
      "outputs": [
        {
          "internalType": "bool",
          "name": "",
          "type": "bool"
        }
      ],
      "stateMutability": "nonpayable",
      "type": "function"
    },
    {
      "inputs": [
        {
          "internalType": "address",
          "name": "sender_",
          "type": "address"
        },
        {
          "internalType": "address",
          "name": "recipient_",
          "type": "address"
        },
        {
          "internalType": "uint256",
          "name": "amount_",
          "type": "uint256"
        }
      ],
      "name": "transferFrom",
      "outputs": [
        {
          "internalType": "bool",
          "name": "",
          "type": "bool"
        }
      ],
      "stateMutability": "nonpayable",
      "type": "function"
    },
    {
      "inputs": [
        {
          "internalType": "address",
          "name": "newOwner",
          "type": "address"
        }
      ],
      "name": "transferOwnership",
      "outputs": [],
      "stateMutability": "nonpayable",
      "type": "function"
    },
    {
      "inputs": [
        {
          "internalType": "address",
          "name": "",
          "type": "address"
        },
        {
          "internalType": "uint256",
          "name": "",
          "type": "uint256"
        }
      ],
      "name": "transferRulesInbound",
      "outputs": [
        {
          "internalType": "uint8",
          "name": "id",
          "type": "uint8"
        },
        {
          "internalType": "uint32",
          "name": "timelockUntil",
          "type": "uint32"
        },
        {
          "internalType": "uint16",
          "name": "vestingDurationDays",
          "type": "uint16"
        },
        {
          "internalType": "uint16",
          "name": "vestingStartsAfterDays",
          "type": "uint16"
        },
        {
          "internalType": "uint16",
          "name": "percUnlockedAtTimeUnlock",
          "type": "uint16"
        },
        {
          "internalType": "uint96",
          "name": "tokens",
          "type": "uint96"
        },
        {
          "internalType": "bool",
          "name": "isPool",
          "type": "bool"
        }
      ],
      "stateMutability": "view",
      "type": "function"
    },
    {
      "inputs": [
        {
          "internalType": "address",
          "name": "",
          "type": "address"
        }
      ],
      "name": "transferRulesOutbound",
      "outputs": [
        {
          "internalType": "uint8",
          "name": "id",
          "type": "uint8"
        },
        {
          "internalType": "uint32",
          "name": "timelockUntil",
          "type": "uint32"
        },
        {
          "internalType": "uint16",
          "name": "vestingDurationDays",
          "type": "uint16"
        },
        {
          "internalType": "uint16",
          "name": "vestingStartsAfterDays",
          "type": "uint16"
        },
        {
          "internalType": "uint16",
          "name": "percUnlockedAtTimeUnlock",
          "type": "uint16"
        }
      ],
      "stateMutability": "view",
      "type": "function"
    }
  ],
  "transactionHash": "0xd3c5f6e1126e3448cbc86012a971e1db64b15c38d66e194befdc2dbd1c4a7ff5",
  "args": [
    "500000000000000000000000000"
  ],
  "solcInputHash": "25ede4ab5fa9bf04ddbe709cd27cccd4",
  "bytecode": "0x60806040523480156200001157600080fd5b506040516200283c3803806200283c833981016040819052620000349162000201565b600080546001600160a01b0319163390811782556040519091907f8be0079c531659141344cd1fd0a4f28419497f9722a3daafe3b4186f6b6457e0908290a36040805180820190915260048082526341494f5760e01b60209092019182526200009e91816200015b565b506040805180820190915260048082526341494f5760e01b6020909201918252620000cc916005916200015b565b506006805460ff1916601217905560038054829190600090620000f19084906200021b565b90915550503360009081526001602052604081208054839290620001179084906200021b565b909155505060405181815233906000907fddf252ad1be2c89b69c2b068fc378daa952ba7f163c4a11628f55a4df523b3ef9060200160405180910390a3506200027f565b828054620001699062000242565b90600052602060002090601f0160209004810192826200018d5760008555620001d8565b82601f10620001a857805160ff1916838001178555620001d8565b82800160010185558215620001d8579182015b82811115620001d8578251825591602001919060010190620001bb565b50620001e6929150620001ea565b5090565b5b80821115620001e65760008155600101620001eb565b6000602082840312156200021457600080fd5b5051919050565b600082198211156200023d57634e487b7160e01b600052601160045260246000fd5b500190565b600181811c908216806200025757607f821691505b602082108114156200027957634e487b7160e01b600052602260045260246000fd5b50919050565b6125ad806200028f6000396000f3fe608060405234801561001057600080fd5b506004361061018d5760003560e01c806395d89b41116100e3578063c712943c1161008c578063dd62ed3e11610066578063dd62ed3e1461043e578063f2fde38b14610477578063fca0a2da1461048a57600080fd5b8063c712943c14610401578063cc8fab6e14610421578063cef898661461043457600080fd5b8063a457c2d7116100bd578063a457c2d7146103c8578063a9059cbb146103db578063aae4d17a146103ee57600080fd5b806395d89b41146103425780639a6693461461034a5780639d9207031461035d57600080fd5b8063313ce56711610145578063715018a61161011f578063715018a6146102ef57806387cb8bcc146102f95780638da5cb5b1461032757600080fd5b8063313ce5671461029457806339509351146102b357806370a08231146102c657600080fd5b80630c6876fd116101765780630c6876fd146101d357806318160ddd1461026a57806323b872dd1461028157600080fd5b806306fdde0314610192578063095ea7b3146101b0575b600080fd5b61019a61049d565b6040516101a79190612262565b60405180910390f35b6101c36101be366004612192565b61052b565b60405190151581526020016101a7565b6102306101e1366004612061565b60076020526000908152604090205460ff81169063ffffffff6101008204169061ffff650100000000008204811691670100000000000000810482169169010000000000000000009091041685565b6040805160ff909616865263ffffffff909416602086015261ffff928316938501939093528116606084015216608082015260a0016101a7565b61027360035481565b6040519081526020016101a7565b6101c361028f3660046120b6565b610541565b6006546102a19060ff1681565b60405160ff90911681526020016101a7565b6101c36102c1366004612192565b61060c565b6102736102d4366004612061565b6001600160a01b031660009081526001602052604090205490565b6102f7610643565b005b61030c610307366004612061565b6106ff565b604080519384526020840192909252908201526060016101a7565b6000546040516001600160a01b0390911681526020016101a7565b61019a61073b565b610273610358366004612061565b610748565b61037061036b366004612192565b610880565b6040805160ff909816885263ffffffff909616602088015261ffff9485169587019590955291831660608601529190911660808401526bffffffffffffffffffffffff1660a0830152151560c082015260e0016101a7565b6101c36103d6366004612192565b610927565b6101c36103e9366004612192565b6109da565b6102f76103fc3660046120f2565b6109e7565b61041461040f366004612061565b61119e565b6040516101a791906121bc565b61030c61042f366004612192565b6112a7565b6102736201518081565b61027361044c366004612083565b6001600160a01b03918216600090815260026020908152604080832093909416825291909152205490565b6102f7610485366004612061565b6114a0565b610273610498366004612061565b6115c3565b600480546104aa9061242e565b80601f01602080910402602001604051908101604052809291908181526020018280546104d69061242e565b80156105235780601f106104f857610100808354040283529160200191610523565b820191906000526020600020905b81548152906001019060200180831161050657829003601f168201915b505050505081565b60006105383384846115f7565b50600192915050565b600061054e84848461174f565b6001600160a01b0384166000908152600260209081526040808320338452909152902054828110156105ed5760405162461bcd60e51b815260206004820152602860248201527f45524332303a207472616e7366657220616d6f756e742065786365656473206160448201527f6c6c6f77616e636500000000000000000000000000000000000000000000000060648201526084015b60405180910390fd5b61060185336105fc86856123cd565b6115f7565b506001949350505050565b3360008181526002602090815260408083206001600160a01b038716845290915281205490916105389185906105fc9086906122d5565b6000546001600160a01b0316331461069d5760405162461bcd60e51b815260206004820152601760248201527f63616c6c6572206973206e6f7420746865206f776e657200000000000000000060448201526064016105e4565b600080546040516001600160a01b03909116907f8be0079c531659141344cd1fd0a4f28419497f9722a3daafe3b4186f6b6457e0908390a3600080547fffffffffffffffffffffffff0000000000000000000000000000000000000000169055565b6001600160a01b0381166000908152600160205260408120548190819061072585610748565b61072e866115c3565b9250925092509193909250565b600580546104aa9061242e565b600080805b6001600160a01b038416600090815260086020526040902054811015610879576001600160a01b038416600090815260086020526040812080548390811061079757610797612548565b60009182526020918290206040805160e081018252919092015460ff808216835263ffffffff6101008304169483019490945261ffff6501000000000082048116938301939093526701000000000000008104831660608301526901000000000000000000810490921660808201526bffffffffffffffffffffffff6b01000000000000000000000083041660a082015277010000000000000000000000000000000000000000000000909104909116151560c082015290506108598161197b565b61086390846122d5565b925050808061087190612482565b91505061074d565b5092915050565b6008602052816000526040600020818154811061089c57600080fd5b60009182526020909120015460ff808216935063ffffffff610100830416925061ffff650100000000008304811692670100000000000000810482169269010000000000000000008204909216916bffffffffffffffffffffffff6b010000000000000000000000830416917701000000000000000000000000000000000000000000000090041687565b3360009081526002602090815260408083206001600160a01b0386168452909152812054828110156109c15760405162461bcd60e51b815260206004820152602560248201527f45524332303a2064656372656173656420616c6c6f77616e63652062656c6f7760448201527f207a65726f00000000000000000000000000000000000000000000000000000060648201526084016105e4565b6109d033856105fc86856123cd565b5060019392505050565b600061053833848461174f565b6000546001600160a01b03163314610a415760405162461bcd60e51b815260206004820152601760248201527f63616c6c6572206973206e6f7420746865206f776e657200000000000000000060448201526064016105e4565b6001600160a01b038716610a975760405162461bcd60e51b815260206004820152601760248201527f6163636f756e742069732061646472657373207a65726f00000000000000000060448201526064016105e4565b4263ffffffff168563ffffffff1611610af25760405162461bcd60e51b815260206004820152601c60248201527f74696d656c6f636b556e74696c20616c7265616479207061737365640000000060448201526064016105e4565b60008261ffff161180610b09575060008361ffff16115b610b7b5760405162461bcd60e51b815260206004820152603960248201527f70657263556e6c6f636b6564417454696d65556e6c6f636b20616e642076657360448201527f74696e674475726174696f6e4461797320617265207a65726f0000000000000060648201526084016105e4565b61271061ffff83161115610bf75760405162461bcd60e51b815260206004820152602360248201527f70657263556e6c6f636b6564417454696d65556e6c6f636b2061626f7665203160448201527f303025000000000000000000000000000000000000000000000000000000000060648201526084016105e4565b6001866001811115610c0b57610c0b612519565b1415610e8d576001600160a01b03871660009081526007602052604090205460ff1615610ca05760405162461bcd60e51b815260206004820152602160248201527f6163636f756e7420616c726561647920686173206f7574626f756e642072756c60448201527f650000000000000000000000000000000000000000000000000000000000000060648201526084016105e4565b6040518060a00160405280600960008154610cba90612482565b918290555060ff908116825263ffffffff80891660208085019190915261ffff8089166040808701919091528a82166060808801919091528983166080978801526001600160a01b038f1660009081526007855282902088518154958a01518a850151938b01519a9099015185166901000000000000000000027fffffffffffffffffffffffffffffffffffffffffff0000ffffffffffffffffff9a8616670100000000000000027fffffffffffffffffffffffffffffffffffffffffffffff0000ffffffffffffff949096166501000000000002939093167fffffffffffffffffffffffffffffffffffffffffffffff00000000ffffffffff99909716610100027fffffffffffffffffffffffffffffffffffffffffffffffffffffff00000000009096169716969096179390931795909516929092179190911793909316929092178255517fa26ffc0b8158269074d1c4e5b8678a8a2cc656cc1031283a86a2aad4516e34bc91610e80918a91906001600160a01b039290921682525460ff81166020830152600881901c63ffffffff166040830152602881901c61ffff9081166060840152603882901c8116608084015260489190911c1660a082015260c00190565b60405180910390a1611195565b6001600160a01b038716600090815260086020526040808220815160e081019092526009805491938392610ec090612482565b918290555060ff908116825263ffffffff808a1660208085019190915261ffff808a166040808701919091528b82166060808801919091528a8316608080890191909152600060a0808a018290528c151560c09a8b01528b5460018181018e559c83528783208c51910180548d8a01518e890151978f0151968f0151948f01519e909d0151151577010000000000000000000000000000000000000000000000027fffffffffffffffff00ffffffffffffffffffffffffffffffffffffffffffffff6bffffffffffffffffffffffff9f909f166b010000000000000000000000027fffffffffffffffffff000000000000000000000000ffffffffffffffffffffff958b16690100000000000000000002959095167fffffffffffffffffff0000000000000000000000000000ffffffffffffffffff978b16670100000000000000027fffffffffffffffffffffffffffffffffffffffffffffff0000ffffffffffffff99909b166501000000000002989098167fffffffffffffffffffffffffffffffffffffffffffffff00000000ffffffffff9e909c16610100027fffffffffffffffffffffffffffffffffffffffffffffffffffffff000000000090921693909c1692909217919091179a909a16979097179490941716179390931795909516929092179092556001600160a01b038b16835260089052902080547e8b6a988fa1a717f86b6c8faef75645cdf58e0d916f619d5b95e0753f608c9d928a92916110ec91906123cd565b815481106110fc576110fc612548565b9060005260206000200160405161118c9291906001600160a01b039290921682525460ff8082166020840152600882901c63ffffffff166040840152602882901c61ffff9081166060850152603883901c81166080850152604883901c1660a08401526bffffffffffffffffffffffff605883901c1660c084015260b89190911c16151560e08201526101000190565b60405180910390a15b50505050505050565b6001600160a01b0381166000908152600860209081526040808320805482518185028101850190935280835260609492939192909184015b8282101561129c5760008481526020908190206040805160e0810182529185015460ff808216845263ffffffff6101008304168486015261ffff6501000000000083048116938501939093526701000000000000008204831660608501526901000000000000000000820490921660808401526bffffffffffffffffffffffff6b01000000000000000000000082041660a084015277010000000000000000000000000000000000000000000000900416151560c08201528252600190920191016111d6565b505050509050919050565b60008080805b6001600160a01b038616600090815260086020526040902054811015611450576001600160a01b03861660009081526008602052604090208054869190839081106112fa576112fa612548565b60009182526020909120015460ff16141561143e576001600160a01b038616600090815260086020526040812080548390811061133957611339612548565b600091825260208083206040805160e081018252919093015460ff808216835263ffffffff6101008304169383019390935261ffff6501000000000082048116948301949094526701000000000000008104841660608301526901000000000000000000810490931660808201526bffffffffffffffffffffffff6b01000000000000000000000084041660a08201527701000000000000000000000000000000000000000000000090920416151560c082015291506113f88261197b565b90506000818360a001516bffffffffffffffffffffffff1661141a91906123cd565b60a0909301516bffffffffffffffffffffffff169650909450909250611499915050565b8061144881612482565b9150506112ad565b5060405162461bcd60e51b815260206004820152601860248201527f6469646e742066696e64206d61746368696e672072756c65000000000000000060448201526064016105e4565b9250925092565b6000546001600160a01b031633146114fa5760405162461bcd60e51b815260206004820152601760248201527f63616c6c6572206973206e6f7420746865206f776e657200000000000000000060448201526064016105e4565b6001600160a01b0381166115505760405162461bcd60e51b815260206004820152601d60248201527f6e6577206f776e657220697320746865207a65726f206164647265737300000060448201526064016105e4565b600080546040516001600160a01b03808516939216917f8be0079c531659141344cd1fd0a4f28419497f9722a3daafe3b4186f6b6457e091a3600080547fffffffffffffffffffffffff0000000000000000000000000000000000000000166001600160a01b0392909216919091179055565b60006115ce82610748565b6001600160a01b0383166000908152600160205260409020546115f191906123cd565b92915050565b6001600160a01b0383166116725760405162461bcd60e51b8152602060048201526024808201527f45524332303a20617070726f76652066726f6d20746865207a65726f2061646460448201527f726573730000000000000000000000000000000000000000000000000000000060648201526084016105e4565b6001600160a01b0382166116ee5760405162461bcd60e51b815260206004820152602260248201527f45524332303a20617070726f766520746f20746865207a65726f20616464726560448201527f737300000000000000000000000000000000000000000000000000000000000060648201526084016105e4565b6001600160a01b0383811660008181526002602090815260408083209487168084529482529182902085905590518481527f8c5be1e5ebec7d5bd14f71427d1e84f3dd0314c0f7b2291e5b200ac8c7c3b925910160405180910390a3505050565b6001600160a01b0383166117cb5760405162461bcd60e51b815260206004820152602560248201527f45524332303a207472616e736665722066726f6d20746865207a65726f20616460448201527f647265737300000000000000000000000000000000000000000000000000000060648201526084016105e4565b6001600160a01b0382166118475760405162461bcd60e51b815260206004820152602360248201527f45524332303a207472616e7366657220746f20746865207a65726f206164647260448201527f657373000000000000000000000000000000000000000000000000000000000060648201526084016105e4565b611852838383611b04565b6001600160a01b038316600090815260016020526040902054818110156118e15760405162461bcd60e51b815260206004820152602660248201527f45524332303a207472616e7366657220616d6f756e742065786365656473206260448201527f616c616e6365000000000000000000000000000000000000000000000000000060648201526084016105e4565b6118eb82826123cd565b6001600160a01b0380861660009081526001602052604080822093909355908516815290812080548492906119219084906122d5565b92505081905550826001600160a01b0316846001600160a01b03167fddf252ad1be2c89b69c2b068fc378daa952ba7f163c4a11628f55a4df523b3ef8460405161196d91815260200190565b60405180910390a350505050565b60004263ffffffff16826020015163ffffffff1611156119ab575060a001516bffffffffffffffffffffffff1690565b608082015161ffff1615611a0f57612710826080015161ffff168360a001516119d49190612399565b6bffffffffffffffffffffffff166119ec919061231d565b8260a0018181516119fd9190612409565b6bffffffffffffffffffffffff169052505b604082015161ffff1615611afc57600062015180836020015142611a3391906123e4565b63ffffffff16611a43919061231d565b9050826060015161ffff168111611a6b57505060a001516bffffffffffffffffffffffff1690565b6000836060015161ffff1682611a8191906123cd565b9050836040015161ffff168110611a9c575060009392505050565b6000846040015161ffff168560a00151611ab69190612331565b6bffffffffffffffffffffffff1690506000611ad2828461235c565b9050808660a001516bffffffffffffffffffffffff16611af291906123cd565b9695505050505050565b506000919050565b611b0d836115c3565b811115611b5c5760405162461bcd60e51b815260206004820152601c60248201527f696e73756666696369656e7420756e6c6f636b656420746f6b656e730000000060448201526064016105e4565b6001600160a01b038216600090815260086020526040902054600111801590611bd457506001600160a01b03821660009081526008602052604081208054909190611ba957611ba9612548565b60009182526020909120015477010000000000000000000000000000000000000000000000900460ff165b15611c6d576001600160a01b03821660009081526008602052604081208054839290611c0257611c02612548565b60009182526020909120018054600b90611c3a9084906b01000000000000000000000090046bffffffffffffffffffffffff166122ed565b92506101000a8154816bffffffffffffffffffffffff02191690836bffffffffffffffffffffffff160217905550505050565b6001600160a01b03831660009081526007602052604090205460ff161561202e576001600160a01b0383166000908152600760209081526040808320815160a081018352905460ff8116825263ffffffff6101008204169382019390935261ffff650100000000008404811692820192909252670100000000000000830482166060820152690100000000000000000090920416608082015290805b6001600160a01b038516600090815260086020526040902054811015611e1c576001600160a01b0385166000908152600860205260409020805482908110611d5357611d53612548565b600091825260209091200154835160ff90811691161415611e0a576001600160a01b038516600090815260086020526040902080546001935085919083908110611d9f57611d9f612548565b60009182526020909120018054600b90611dd79084906b01000000000000000000000090046bffffffffffffffffffffffff166122ed565b92506101000a8154816bffffffffffffffffffffffff02191690836bffffffffffffffffffffffff160217905550611e1c565b80611e1481612482565b915050611d09565b508061202b576001600160a01b0384166000908152600860209081526040808320815160e081018352865160ff90811682528785015163ffffffff9081168387019081528986015161ffff9081169685019687526060808c015182169086019081526080808d015183169087019081526bffffffffffffffffffffffff808f1660a0890190815260c089018d81528a54600181018c559a8e529b909c20975197909801805494519951925191519b519a51151577010000000000000000000000000000000000000000000000027fffffffffffffffff00ffffffffffffffffffffffffffffffffffffffffffffff9b9099166b010000000000000000000000027fffffffffffffffffff000000000000000000000000ffffffffffffffffffffff9c85166901000000000000000000029c909c167fffffffffffffffffff0000000000000000000000000000ffffffffffffffffff928516670100000000000000027fffffffffffffffffffffffffffffffffffffffffffffff0000ffffffffffffff949095166501000000000002939093167fffffffffffffffffffffffffffffffffffffffffffffff00000000ffffffffff9a909616610100027fffffffffffffffffffffffffffffffffffffffffffffffffffffff0000000000909516979096169690961792909217969096169190911794909417919091169290921793909317919091169190911790555b50505b505050565b80356001600160a01b038116811461204a57600080fd5b919050565b803561ffff8116811461204a57600080fd5b60006020828403121561207357600080fd5b61207c82612033565b9392505050565b6000806040838503121561209657600080fd5b61209f83612033565b91506120ad60208401612033565b90509250929050565b6000806000606084860312156120cb57600080fd5b6120d484612033565b92506120e260208501612033565b9150604084013590509250925092565b600080600080600080600060e0888a03121561210d57600080fd5b61211688612033565b965060208801356002811061212a57600080fd5b9550604088013563ffffffff8116811461214357600080fd5b94506121516060890161204f565b935061215f6080890161204f565b925061216d60a0890161204f565b915060c0880135801515811461218257600080fd5b8091505092959891949750929550565b600080604083850312156121a557600080fd5b6121ae83612033565b946020939093013593505050565b602080825282518282018190526000919060409081850190868401855b82811015612255578151805160ff1685528681015163ffffffff16878601528581015161ffff908116878701526060808301518216908701526080808301519091169086015260a0808201516bffffffffffffffffffffffff169086015260c09081015115159085015260e090930192908501906001016121d9565b5091979650505050505050565b600060208083528351808285015260005b8181101561228f57858101830151858201604001528201612273565b818111156122a1576000604083870101525b50601f017fffffffffffffffffffffffffffffffffffffffffffffffffffffffffffffffe016929092016040019392505050565b600082198211156122e8576122e86124bb565b500190565b60006bffffffffffffffffffffffff808316818516808303821115612314576123146124bb565b01949350505050565b60008261232c5761232c6124ea565b500490565b60006bffffffffffffffffffffffff80841680612350576123506124ea565b92169190910492915050565b6000817fffffffffffffffffffffffffffffffffffffffffffffffffffffffffffffffff0483118215151615612394576123946124bb565b500290565b60006bffffffffffffffffffffffff808316818516818304811182151516156123c4576123c46124bb565b02949350505050565b6000828210156123df576123df6124bb565b500390565b600063ffffffff83811690831681811015612401576124016124bb565b039392505050565b60006bffffffffffffffffffffffff83811690831681811015612401576124016124bb565b600181811c9082168061244257607f821691505b6020821081141561247c577f4e487b7100000000000000000000000000000000000000000000000000000000600052602260045260246000fd5b50919050565b60007fffffffffffffffffffffffffffffffffffffffffffffffffffffffffffffffff8214156124b4576124b46124bb565b5060010190565b7f4e487b7100000000000000000000000000000000000000000000000000000000600052601160045260246000fd5b7f4e487b7100000000000000000000000000000000000000000000000000000000600052601260045260246000fd5b7f4e487b7100000000000000000000000000000000000000000000000000000000600052602160045260246000fd5b7f4e487b7100000000000000000000000000000000000000000000000000000000600052603260045260246000fdfea2646970667358221220ff17f2975cab8cfa42cd30bdae6633ee9d9134cf301bd6a1088cbbfde6b62a7d64736f6c63430008070033",
  "devdoc": {
    "kind": "dev",
    "methods": {
      "getInboundTransferRules(address)": {
        "details": "helper to get a list of all of the inbound transfer rules of an account"
      }
    },
    "stateVariables": {
      "PERC_BASE": {
        "details": "used for percUnlockedAtTimeUnlock in transfer rules"
      },
      "SECONDS_IN_ONE_DAY": {
        "details": "used for vesting calculations"
      },
      "ruleIdCounter": {
        "details": "each inbound/outbound transfer rule has an id, the first rule gets id 1"
      },
      "transferRulesInbound": {
        "details": "each account can have any number of inbound transfer rules"
      },
      "transferRulesOutbound": {
        "details": "each account can have at most 1 outbound transfer rules"
      }
    },
    "version": 1
  },
  "userdoc": {
    "kind": "user",
    "methods": {},
    "version": 1
  },
  "storageLayout": {
    "storage": [
      {
        "astId": 3,
        "contract": "contracts/token/AIOW.sol:AIOW",
        "label": "_owner",
        "offset": 0,
        "slot": "0",
        "type": "t_address"
      },
      {
        "astId": 460,
        "contract": "contracts/token/AIOW.sol:AIOW",
        "label": "_balances",
        "offset": 0,
        "slot": "1",
        "type": "t_mapping(t_address,t_uint256)"
      },
      {
        "astId": 466,
        "contract": "contracts/token/AIOW.sol:AIOW",
        "label": "_allowances",
        "offset": 0,
        "slot": "2",
        "type": "t_mapping(t_address,t_mapping(t_address,t_uint256))"
      },
      {
        "astId": 468,
        "contract": "contracts/token/AIOW.sol:AIOW",
        "label": "totalSupply",
        "offset": 0,
        "slot": "3",
        "type": "t_uint256"
      },
      {
        "astId": 470,
        "contract": "contracts/token/AIOW.sol:AIOW",
        "label": "name",
        "offset": 0,
        "slot": "4",
        "type": "t_string_storage"
      },
      {
        "astId": 472,
        "contract": "contracts/token/AIOW.sol:AIOW",
        "label": "symbol",
        "offset": 0,
        "slot": "5",
        "type": "t_string_storage"
      },
      {
        "astId": 474,
        "contract": "contracts/token/AIOW.sol:AIOW",
        "label": "decimals",
        "offset": 0,
        "slot": "6",
        "type": "t_uint8"
      },
      {
        "astId": 488,
        "contract": "contracts/token/AIOW.sol:AIOW",
        "label": "transferRulesOutbound",
        "offset": 0,
        "slot": "7",
        "type": "t_mapping(t_address,t_struct(TransferRuleOutbound)527_storage)"
      },
      {
        "astId": 495,
        "contract": "contracts/token/AIOW.sol:AIOW",
        "label": "transferRulesInbound",
        "offset": 0,
        "slot": "8",
        "type": "t_mapping(t_address,t_array(t_struct(TransferRuleInbound)542_storage)dyn_storage)"
      },
      {
        "astId": 516,
        "contract": "contracts/token/AIOW.sol:AIOW",
        "label": "ruleIdCounter",
        "offset": 0,
        "slot": "9",
        "type": "t_uint256"
      }
    ],
    "types": {
      "t_address": {
        "encoding": "inplace",
        "label": "address",
        "numberOfBytes": "20"
      },
      "t_array(t_struct(TransferRuleInbound)542_storage)dyn_storage": {
        "base": "t_struct(TransferRuleInbound)542_storage",
        "encoding": "dynamic_array",
        "label": "struct AIOW.TransferRuleInbound[]",
        "numberOfBytes": "32"
      },
      "t_bool": {
        "encoding": "inplace",
        "label": "bool",
        "numberOfBytes": "1"
      },
      "t_mapping(t_address,t_array(t_struct(TransferRuleInbound)542_storage)dyn_storage)": {
        "encoding": "mapping",
        "key": "t_address",
        "label": "mapping(address => struct AIOW.TransferRuleInbound[])",
        "numberOfBytes": "32",
        "value": "t_array(t_struct(TransferRuleInbound)542_storage)dyn_storage"
      },
      "t_mapping(t_address,t_mapping(t_address,t_uint256))": {
        "encoding": "mapping",
        "key": "t_address",
        "label": "mapping(address => mapping(address => uint256))",
        "numberOfBytes": "32",
        "value": "t_mapping(t_address,t_uint256)"
      },
      "t_mapping(t_address,t_struct(TransferRuleOutbound)527_storage)": {
        "encoding": "mapping",
        "key": "t_address",
        "label": "mapping(address => struct AIOW.TransferRuleOutbound)",
        "numberOfBytes": "32",
        "value": "t_struct(TransferRuleOutbound)527_storage"
      },
      "t_mapping(t_address,t_uint256)": {
        "encoding": "mapping",
        "key": "t_address",
        "label": "mapping(address => uint256)",
        "numberOfBytes": "32",
        "value": "t_uint256"
      },
      "t_string_storage": {
        "encoding": "bytes",
        "label": "string",
        "numberOfBytes": "32"
      },
      "t_struct(TransferRuleInbound)542_storage": {
        "encoding": "inplace",
        "label": "struct AIOW.TransferRuleInbound",
        "members": [
          {
            "astId": 529,
            "contract": "contracts/token/AIOW.sol:AIOW",
            "label": "id",
            "offset": 0,
            "slot": "0",
            "type": "t_uint8"
          },
          {
            "astId": 531,
            "contract": "contracts/token/AIOW.sol:AIOW",
            "label": "timelockUntil",
            "offset": 1,
            "slot": "0",
            "type": "t_uint32"
          },
          {
            "astId": 533,
            "contract": "contracts/token/AIOW.sol:AIOW",
            "label": "vestingDurationDays",
            "offset": 5,
            "slot": "0",
            "type": "t_uint16"
          },
          {
            "astId": 535,
            "contract": "contracts/token/AIOW.sol:AIOW",
            "label": "vestingStartsAfterDays",
            "offset": 7,
            "slot": "0",
            "type": "t_uint16"
          },
          {
            "astId": 537,
            "contract": "contracts/token/AIOW.sol:AIOW",
            "label": "percUnlockedAtTimeUnlock",
            "offset": 9,
            "slot": "0",
            "type": "t_uint16"
          },
          {
            "astId": 539,
            "contract": "contracts/token/AIOW.sol:AIOW",
            "label": "tokens",
            "offset": 11,
            "slot": "0",
            "type": "t_uint96"
          },
          {
            "astId": 541,
            "contract": "contracts/token/AIOW.sol:AIOW",
            "label": "isPool",
            "offset": 23,
            "slot": "0",
            "type": "t_bool"
          }
        ],
        "numberOfBytes": "32"
      },
      "t_struct(TransferRuleOutbound)527_storage": {
        "encoding": "inplace",
        "label": "struct AIOW.TransferRuleOutbound",
        "members": [
          {
            "astId": 518,
            "contract": "contracts/token/AIOW.sol:AIOW",
            "label": "id",
            "offset": 0,
            "slot": "0",
            "type": "t_uint8"
          },
          {
            "astId": 520,
            "contract": "contracts/token/AIOW.sol:AIOW",
            "label": "timelockUntil",
            "offset": 1,
            "slot": "0",
            "type": "t_uint32"
          },
          {
            "astId": 522,
            "contract": "contracts/token/AIOW.sol:AIOW",
            "label": "vestingDurationDays",
            "offset": 5,
            "slot": "0",
            "type": "t_uint16"
          },
          {
            "astId": 524,
            "contract": "contracts/token/AIOW.sol:AIOW",
            "label": "vestingStartsAfterDays",
            "offset": 7,
            "slot": "0",
            "type": "t_uint16"
          },
          {
            "astId": 526,
            "contract": "contracts/token/AIOW.sol:AIOW",
            "label": "percUnlockedAtTimeUnlock",
            "offset": 9,
            "slot": "0",
            "type": "t_uint16"
          }
        ],
        "numberOfBytes": "32"
      },
      "t_uint16": {
        "encoding": "inplace",
        "label": "uint16",
        "numberOfBytes": "2"
      },
      "t_uint256": {
        "encoding": "inplace",
        "label": "uint256",
        "numberOfBytes": "32"
      },
      "t_uint32": {
        "encoding": "inplace",
        "label": "uint32",
        "numberOfBytes": "4"
      },
      "t_uint8": {
        "encoding": "inplace",
        "label": "uint8",
        "numberOfBytes": "1"
      },
      "t_uint96": {
        "encoding": "inplace",
        "label": "uint96",
        "numberOfBytes": "12"
      }
    }
  }
}