{
  "address": "0x7C317c4ad47C35F71845AD7B9DE397e35d7cE29c",
  "abi": [
    {
      "inputs": [
        {
          "internalType": "address",
          "name": "token_",
          "type": "address"
        },
        {
          "internalType": "address",
          "name": "priceFeed_",
          "type": "address"
        },
        {
          "internalType": "uint256",
          "name": "minBuyToken_",
          "type": "uint256"
        },
        {
          "internalType": "uint256",
          "name": "maxBuyToken_",
          "type": "uint256"
        },
        {
          "internalType": "uint256",
          "name": "startTime_",
          "type": "uint256"
        },
        {
          "internalType": "uint256",
          "name": "endTime_",
          "type": "uint256"
        },
        {
          "internalType": "uint256",
          "name": "tokensPerUsd_",
          "type": "uint256"
        }
      ],
      "stateMutability": "nonpayable",
      "type": "constructor"
    },
    {
      "anonymous": false,
      "inputs": [
        {
          "indexed": true,
          "internalType": "address",
          "name": "recipient",
          "type": "address"
        },
        {
          "indexed": false,
          "internalType": "uint256",
          "name": "ethAmount",
          "type": "uint256"
        }
      ],
      "name": "EthWithdraw",
      "type": "event"
    },
    {
      "anonymous": false,
      "inputs": [
        {
          "indexed": true,
          "internalType": "address",
          "name": "previousOwner",
          "type": "address"
        },
        {
          "indexed": true,
          "internalType": "address",
          "name": "newOwner",
          "type": "address"
        }
      ],
      "name": "OwnershipTransferred",
      "type": "event"
    },
    {
      "anonymous": false,
      "inputs": [
        {
          "indexed": true,
          "internalType": "address",
          "name": "beneficiary",
          "type": "address"
        },
        {
          "indexed": false,
          "internalType": "uint256",
          "name": "ethAmount",
          "type": "uint256"
        },
        {
          "indexed": false,
          "internalType": "uint256",
          "name": "tokenAmount",
          "type": "uint256"
        }
      ],
      "name": "TokenPurchase",
      "type": "event"
    },
    {
      "anonymous": false,
      "inputs": [
        {
          "indexed": true,
          "internalType": "address",
          "name": "beneficiary",
          "type": "address"
        },
        {
          "indexed": false,
          "internalType": "uint256",
          "name": "tokenAmount",
          "type": "uint256"
        }
      ],
      "name": "TokenWithdraw",
      "type": "event"
    },
    {
      "anonymous": false,
      "inputs": [
        {
          "indexed": true,
          "internalType": "address",
          "name": "recipient",
          "type": "address"
        },
        {
          "indexed": false,
          "internalType": "uint256",
          "name": "tokenAmount",
          "type": "uint256"
        }
      ],
      "name": "UnsoldTokensWithdraw",
      "type": "event"
    },
    {
      "anonymous": false,
      "inputs": [
        {
          "indexed": false,
          "internalType": "address",
          "name": "account",
          "type": "address"
        }
      ],
      "name": "WhitelistAdded",
      "type": "event"
    },
    {
      "anonymous": false,
      "inputs": [
        {
          "indexed": false,
          "internalType": "address",
          "name": "account",
          "type": "address"
        }
      ],
      "name": "WhitelistRemoved",
      "type": "event"
    },
    {
      "inputs": [],
      "name": "BASE",
      "outputs": [
        {
          "internalType": "uint256",
          "name": "",
          "type": "uint256"
        }
      ],
      "stateMutability": "view",
      "type": "function"
    },
    {
      "inputs": [
        {
          "internalType": "address",
          "name": "",
          "type": "address"
        }
      ],
      "name": "balances",
      "outputs": [
        {
          "internalType": "uint256",
          "name": "",
          "type": "uint256"
        }
      ],
      "stateMutability": "view",
      "type": "function"
    },
    {
      "inputs": [],
      "name": "buyTokens",
      "outputs": [],
      "stateMutability": "payable",
      "type": "function"
    },
    {
      "inputs": [],
      "name": "endTime",
      "outputs": [
        {
          "internalType": "uint256",
          "name": "",
          "type": "uint256"
        }
      ],
      "stateMutability": "view",
      "type": "function"
    },
    {
      "inputs": [
        {
          "internalType": "uint256",
          "name": "amountEth_",
          "type": "uint256"
        }
      ],
      "name": "ethToToken",
      "outputs": [
        {
          "internalType": "uint256",
          "name": "amountToken",
          "type": "uint256"
        }
      ],
      "stateMutability": "view",
      "type": "function"
    },
    {
      "inputs": [],
      "name": "getEthUsdPrice",
      "outputs": [
        {
          "internalType": "uint256",
          "name": "",
          "type": "uint256"
        }
      ],
      "stateMutability": "view",
      "type": "function"
    },
    {
      "inputs": [
        {
          "internalType": "address",
          "name": "account_",
          "type": "address"
        }
      ],
      "name": "getMaxTokensAllowedToBuyOf",
      "outputs": [
        {
          "internalType": "uint256",
          "name": "",
          "type": "uint256"
        }
      ],
      "stateMutability": "view",
      "type": "function"
    },
    {
      "inputs": [
        {
          "internalType": "address",
          "name": "account_",
          "type": "address"
        }
      ],
      "name": "getMinTokensAllowedToBuyOf",
      "outputs": [
        {
          "internalType": "uint256",
          "name": "",
          "type": "uint256"
        }
      ],
      "stateMutability": "view",
      "type": "function"
    },
    {
      "inputs": [],
      "name": "getTokensLeftForSale",
      "outputs": [
        {
          "internalType": "uint256",
          "name": "",
          "type": "uint256"
        }
      ],
      "stateMutability": "view",
      "type": "function"
    },
    {
      "inputs": [],
      "name": "hasEnded",
      "outputs": [
        {
          "internalType": "bool",
          "name": "",
          "type": "bool"
        }
      ],
      "stateMutability": "view",
      "type": "function"
    },
    {
      "inputs": [],
      "name": "isOpen",
      "outputs": [
        {
          "internalType": "bool",
          "name": "",
          "type": "bool"
        }
      ],
      "stateMutability": "view",
      "type": "function"
    },
    {
      "inputs": [],
      "name": "maxBuyToken",
      "outputs": [
        {
          "internalType": "uint256",
          "name": "",
          "type": "uint256"
        }
      ],
      "stateMutability": "view",
      "type": "function"
    },
    {
      "inputs": [],
      "name": "minBuyToken",
      "outputs": [
        {
          "internalType": "uint256",
          "name": "",
          "type": "uint256"
        }
      ],
      "stateMutability": "view",
      "type": "function"
    },
    {
      "inputs": [],
      "name": "owner",
      "outputs": [
        {
          "internalType": "address",
          "name": "",
          "type": "address"
        }
      ],
      "stateMutability": "view",
      "type": "function"
    },
    {
      "inputs": [],
      "name": "priceFeed",
      "outputs": [
        {
          "internalType": "contract AggregatorV3Interface",
          "name": "",
          "type": "address"
        }
      ],
      "stateMutability": "view",
      "type": "function"
    },
    {
      "inputs": [],
      "name": "renounceOwnership",
      "outputs": [],
      "stateMutability": "nonpayable",
      "type": "function"
    },
    {
      "inputs": [],
      "name": "startTime",
      "outputs": [
        {
          "internalType": "uint256",
          "name": "",
          "type": "uint256"
        }
      ],
      "stateMutability": "view",
      "type": "function"
    },
    {
      "inputs": [],
      "name": "token",
      "outputs": [
        {
          "internalType": "contract IERC20",
          "name": "",
          "type": "address"
        }
      ],
      "stateMutability": "view",
      "type": "function"
    },
    {
      "inputs": [
        {
          "internalType": "uint256",
          "name": "amountToken_",
          "type": "uint256"
        }
      ],
      "name": "tokenToEth",
      "outputs": [
        {
          "internalType": "uint256",
          "name": "amountEth",
          "type": "uint256"
        }
      ],
      "stateMutability": "view",
      "type": "function"
    },
    {
      "inputs": [],
      "name": "tokensPerUsd",
      "outputs": [
        {
          "internalType": "uint256",
          "name": "",
          "type": "uint256"
        }
      ],
      "stateMutability": "view",
      "type": "function"
    },
    {
      "inputs": [
        {
          "internalType": "address",
          "name": "newOwner",
          "type": "address"
        }
      ],
      "name": "transferOwnership",
      "outputs": [],
      "stateMutability": "nonpayable",
      "type": "function"
    },
    {
      "inputs": [
        {
          "internalType": "address",
          "name": "recipient_",
          "type": "address"
        }
      ],
      "name": "transferUnsoldTokens",
      "outputs": [],
      "stateMutability": "nonpayable",
      "type": "function"
    },
    {
      "inputs": [
        {
          "internalType": "address",
          "name": "",
          "type": "address"
        }
      ],
      "name": "whitelist",
      "outputs": [
        {
          "internalType": "bool",
          "name": "",
          "type": "bool"
        }
      ],
      "stateMutability": "view",
      "type": "function"
    },
    {
      "inputs": [
        {
          "internalType": "address",
          "name": "account_",
          "type": "address"
        }
      ],
      "name": "whitelistAdd",
      "outputs": [],
      "stateMutability": "nonpayable",
      "type": "function"
    },
    {
      "inputs": [
        {
          "internalType": "address[]",
          "name": "accounts_",
          "type": "address[]"
        }
      ],
      "name": "whitelistBatchAdd",
      "outputs": [],
      "stateMutability": "nonpayable",
      "type": "function"
    },
    {
      "inputs": [
        {
          "internalType": "address",
          "name": "account_",
          "type": "address"
        }
      ],
      "name": "whitelistRemove",
      "outputs": [],
      "stateMutability": "nonpayable",
      "type": "function"
    },
    {
      "inputs": [
        {
          "internalType": "address payable",
          "name": "recipient_",
          "type": "address"
        }
      ],
      "name": "withdrawEth",
      "outputs": [],
      "stateMutability": "nonpayable",
      "type": "function"
    }
  ],
  "transactionHash": "0x1f999c95bd86fb063361e9bf6c78d4037b8cff9cec188c5e6911b1b936b4476f",
  "args": [
    "0xd1DBEE5d30eDAac4A4340358E269E7F14E09E26E",
    "0x5f4eC3Df9cbd43714FE2740f5E3616155c5b8419",
    "100000000000000000000000",
    "10000000000000000000000000",
    1629903600,
    1630533599,
    "200000000000000000000"
  ],
  "solcInputHash": "25ede4ab5fa9bf04ddbe709cd27cccd4",
  "bytecode": "0x6101606040523480156200001257600080fd5b50604051620023e1380380620023e1833981016040819052620000359162000303565b600080546001600160a01b03191633908117825560405189928992899289928992899289928892917f8be0079c531659141344cd1fd0a4f28419497f9722a3daafe3b4186f6b6457e0908290a36001600160a01b038116620000d25760405162461bcd60e51b815260206004820152601160248201527007072696365466565645f2069732030783607c1b60448201526064015b60405180910390fd5b60601b6001600160601b0319166080526001600160a01b0387166200012a5760405162461bcd60e51b815260206004820152600d60248201526c0746f6b656e5f2069732030783609c1b6044820152606401620000c9565b42831015620001715760405162461bcd60e51b8152602060048201526012602482015271737461727454696d655f20746f6f206c6f7760701b6044820152606401620000c9565b828211620001c25760405162461bcd60e51b815260206004820152601d60248201527f656e6454696d655f206e6f742061626f766520737461727454696d655f0000006044820152606401620000c9565b60008111620002095760405162461bcd60e51b81526020600482015260126024820152710746f6b656e735065725573645f20697320360741b6044820152606401620000c9565b600085116200024f5760405162461bcd60e51b815260206004820152601160248201527006d696e427579546f6b656e5f206973203607c1b6044820152606401620000c9565b848411620002ac5760405162461bcd60e51b815260206004820152602360248201527f6d6178427579546f6b656e5f206e6f742061626f7665206d696e427579546f6b604482015262656e5f60e81b6064820152608401620000c9565b60609690961b6001600160601b03191660a05260c09190915260e05261010093909352610120525061014052506200036a95505050505050565b80516001600160a01b0381168114620002fe57600080fd5b919050565b600080600080600080600060e0888a0312156200031f57600080fd5b6200032a88620002e6565b96506200033a60208901620002e6565b604089015160608a015160808b015160a08c015160c0909c01519a9d939c50919a90999198509650945092505050565b60805160601c60a05160601c60c05160e051610100516101205161014051611f836200045e600039600081816105860152818161096b01528181611466015261149d0152600081816104a1015281816114c5015281816114f80152818161198f01526119b901526000818161046501528181610b3801526115360152600081816102250152818161052e015281816105de01528181610a990152610c6e01526000818161036c0152610a6e0152600081816105ba015281816108b501528181610dd601528181610f0301528181611111015281816113b00152611b250152600081816103130152610fd90152611f836000f3fe6080604052600436106101ac5760003560e01c80639d0880a3116100ec578063db3fbfc91161008a578063ecb70fb711610064578063ecb70fb71461051f578063f2fde38b14610554578063f6d8375c14610574578063fc0c546a146105a857600080fd5b8063db3fbfc9146104c3578063e27a2489146104e3578063ec342ad01461050357600080fd5b8063a932ed0d116100c6578063a932ed0d14610433578063b944a66314610453578063d0febe4c14610487578063db1b1d6e1461048f57600080fd5b80639d0880a3146103e9578063a0a8045e14610409578063a208de001461041e57600080fd5b8063524fa7b911610159578063741bef1a11610133578063741bef1a1461030157806378e979251461035a5780638da5cb5b1461038e5780639b19251a146103b957600080fd5b8063524fa7b9146102ac57806370b2a30f146102cc578063715018a6146102ec57600080fd5b80633eec74ae1161018a5780633eec74ae14610247578063424e0c821461026757806347535d7b1461028757600080fd5b806325e16063146101b157806327e235e3146101d35780633197cbb614610213575b600080fd5b3480156101bd57600080fd5b506101d16101cc366004611cb7565b6105dc565b005b3480156101df57600080fd5b506102006101ee366004611cb7565b60016020526000908152604090205481565b6040519081526020015b60405180910390f35b34801561021f57600080fd5b506102007f000000000000000000000000000000000000000000000000000000000000000081565b34801561025357600080fd5b50610200610262366004611cb7565b61086d565b34801561027357600080fd5b506101d1610282366004611cd4565b6109b2565b34801561029357600080fd5b5061029c610a6a565b604051901515815260200161020a565b3480156102b857600080fd5b506101d16102c7366004611cb7565b610ac1565b3480156102d857600080fd5b506102006102e7366004611d6b565b610b34565b3480156102f857600080fd5b506101d1610b96565b34801561030d57600080fd5b506103357f000000000000000000000000000000000000000000000000000000000000000081565b60405173ffffffffffffffffffffffffffffffffffffffff909116815260200161020a565b34801561036657600080fd5b506102007f000000000000000000000000000000000000000000000000000000000000000081565b34801561039a57600080fd5b5060005473ffffffffffffffffffffffffffffffffffffffff16610335565b3480156103c557600080fd5b5061029c6103d4366004611cb7565b60026020526000908152604090205460ff1681565b3480156103f557600080fd5b506101d1610404366004611cb7565b610c6c565b34801561041557600080fd5b50610200610fd4565b34801561042a57600080fd5b506102006110e0565b34801561043f57600080fd5b506101d161044e366004611cb7565b6111a0565b34801561045f57600080fd5b506102007f000000000000000000000000000000000000000000000000000000000000000081565b6101d16112ff565b34801561049b57600080fd5b506102007f000000000000000000000000000000000000000000000000000000000000000081565b3480156104cf57600080fd5b506102006104de366004611cb7565b611368565b3480156104ef57600080fd5b506102006104fe366004611d6b565b611528565b34801561050f57600080fd5b50610200670de0b6b3a764000081565b34801561052b57600080fd5b507f0000000000000000000000000000000000000000000000000000000000000000421161029c565b34801561056057600080fd5b506101d161056f366004611cb7565b611567565b34801561058057600080fd5b506102007f000000000000000000000000000000000000000000000000000000000000000081565b3480156105b457600080fd5b506103357f000000000000000000000000000000000000000000000000000000000000000081565b7f000000000000000000000000000000000000000000000000000000000000000042116106505760405162461bcd60e51b815260206004820152600e60248201527f73616c65206e6f7420656e64656400000000000000000000000000000000000060448201526064015b60405180910390fd5b60005473ffffffffffffffffffffffffffffffffffffffff1633146106b75760405162461bcd60e51b815260206004820152601760248201527f63616c6c6572206973206e6f7420746865206f776e65720000000000000000006044820152606401610647565b73ffffffffffffffffffffffffffffffffffffffff811661071a5760405162461bcd60e51b815260206004820152601160248201527f726563697069656e745f206973203078300000000000000000000000000000006044820152606401610647565b47806107685760405162461bcd60e51b815260206004820152601260248201527f6e6f2065746820746f20776974686472617700000000000000000000000000006044820152606401610647565b60008273ffffffffffffffffffffffffffffffffffffffff168260405160006040518083038185875af1925050503d80600081146107c2576040519150601f19603f3d011682016040523d82523d6000602084013e6107c7565b606091505b50509050806108185760405162461bcd60e51b815260206004820152601c60248201527f776974686472617720657468207472616e73666572206661696c6564000000006044820152606401610647565b8273ffffffffffffffffffffffffffffffffffffffff167f109ee141209f6239a23d90572cc3e0474bd55208d82e0b5ad378d8ee7d9223ea8360405161086091815260200190565b60405180910390a2505050565b6040517f70a08231000000000000000000000000000000000000000000000000000000008152306004820152600090819073ffffffffffffffffffffffffffffffffffffffff7f000000000000000000000000000000000000000000000000000000000000000016906370a082319060240160206040518083038186803b1580156108f757600080fd5b505afa15801561090b573d6000803e3d6000fd5b505050506040513d601f19601f8201168201806040525081019061092f9190611d84565b90508061093f5750600092915050565b73ffffffffffffffffffffffffffffffffffffffff831660009081526001602052604081205461098f907f0000000000000000000000000000000000000000000000000000000000000000611e7d565b9050806109a0575060009392505050565b818111156109ab5750805b9392505050565b60005473ffffffffffffffffffffffffffffffffffffffff163314610a195760405162461bcd60e51b815260206004820152601760248201527f63616c6c6572206973206e6f7420746865206f776e65720000000000000000006044820152606401610647565b60005b81811015610a6557610a53838383818110610a3957610a39611efc565b9050602002016020810190610a4e9190611cb7565b6116be565b80610a5d81611e94565b915050610a1c565b505050565b60007f00000000000000000000000000000000000000000000000000000000000000004210158015610abc57507f00000000000000000000000000000000000000000000000000000000000000004211155b905090565b60005473ffffffffffffffffffffffffffffffffffffffff163314610b285760405162461bcd60e51b815260206004820152601760248201527f63616c6c6572206973206e6f7420746865206f776e65720000000000000000006044820152606401610647565b610b31816116be565b50565b60007f0000000000000000000000000000000000000000000000000000000000000000610b5f610fd4565b670de0b6b3a7640000610b728186611e40565b610b7c9190611e40565b610b869190611e05565b610b909190611e05565b92915050565b60005473ffffffffffffffffffffffffffffffffffffffff163314610bfd5760405162461bcd60e51b815260206004820152601760248201527f63616c6c6572206973206e6f7420746865206f776e65720000000000000000006044820152606401610647565b6000805460405173ffffffffffffffffffffffffffffffffffffffff909116907f8be0079c531659141344cd1fd0a4f28419497f9722a3daafe3b4186f6b6457e0908390a3600080547fffffffffffffffffffffffff0000000000000000000000000000000000000000169055565b7f00000000000000000000000000000000000000000000000000000000000000004211610cdb5760405162461bcd60e51b815260206004820152600e60248201527f73616c65206e6f7420656e6465640000000000000000000000000000000000006044820152606401610647565b60005473ffffffffffffffffffffffffffffffffffffffff163314610d425760405162461bcd60e51b815260206004820152601760248201527f63616c6c6572206973206e6f7420746865206f776e65720000000000000000006044820152606401610647565b73ffffffffffffffffffffffffffffffffffffffff8116610da55760405162461bcd60e51b815260206004820152601160248201527f726563697069656e745f206973203078300000000000000000000000000000006044820152606401610647565b6040517f70a082310000000000000000000000000000000000000000000000000000000081523060048201526000907f000000000000000000000000000000000000000000000000000000000000000073ffffffffffffffffffffffffffffffffffffffff16906370a082319060240160206040518083038186803b158015610e2d57600080fd5b505afa158015610e41573d6000803e3d6000fd5b505050506040513d601f19601f82011682018060405250810190610e659190611d84565b905060008111610eb75760405162461bcd60e51b815260206004820152601560248201527f6e6f20746f6b656e7320746f20776974686472617700000000000000000000006044820152606401610647565b6040517fa9059cbb00000000000000000000000000000000000000000000000000000000815273ffffffffffffffffffffffffffffffffffffffff8381166004830152602482018390527f0000000000000000000000000000000000000000000000000000000000000000169063a9059cbb90604401602060405180830381600087803b158015610f4757600080fd5b505af1158015610f5b573d6000803e3d6000fd5b505050506040513d601f19601f82011682018060405250810190610f7f9190611d49565b508173ffffffffffffffffffffffffffffffffffffffff167f70d0b5a290618fe3d16c5abedf3a987b0cccc54269c46ed2f6ce3081f232ebeb82604051610fc891815260200190565b60405180910390a25050565b6000807f000000000000000000000000000000000000000000000000000000000000000073ffffffffffffffffffffffffffffffffffffffff1663feaf968c6040518163ffffffff1660e01b815260040160a06040518083038186803b15801561103d57600080fd5b505afa158015611051573d6000803e3d6000fd5b505050506040513d601f19601f820116820180604052508101906110759190611d9d565b505050915050600081136110cb5760405162461bcd60e51b815260206004820152600f60248201527f696e636f727265637420707269636500000000000000000000000000000000006044820152606401610647565b6110da816402540be400611e40565b91505090565b6040517f70a082310000000000000000000000000000000000000000000000000000000081523060048201526000907f000000000000000000000000000000000000000000000000000000000000000073ffffffffffffffffffffffffffffffffffffffff16906370a082319060240160206040518083038186803b15801561116857600080fd5b505afa15801561117c573d6000803e3d6000fd5b505050506040513d601f19601f82011682018060405250810190610abc9190611d84565b60005473ffffffffffffffffffffffffffffffffffffffff1633146112075760405162461bcd60e51b815260206004820152601760248201527f63616c6c6572206973206e6f7420746865206f776e65720000000000000000006044820152606401610647565b73ffffffffffffffffffffffffffffffffffffffff811660009081526002602052604090205460ff1661127c5760405162461bcd60e51b815260206004820152600f60248201527f6e6f742077686974656c697374656400000000000000000000000000000000006044820152606401610647565b73ffffffffffffffffffffffffffffffffffffffff811660008181526002602090815260409182902080547fffffffffffffffffffffffffffffffffffffffffffffffffffffffffffffff0016905590519182527fde8cf212af7ce38b2840785a2768d97ff2dbf3c21b516961cec0061e134c2a1e91015b60405180910390a150565b3360009081526002602052604090205460ff1661135e5760405162461bcd60e51b815260206004820152601660248201527f63616c6c6572206e6f742077686974656c6973746564000000000000000000006044820152606401610647565b611366611816565b565b6040517f70a08231000000000000000000000000000000000000000000000000000000008152306004820152600090819073ffffffffffffffffffffffffffffffffffffffff7f000000000000000000000000000000000000000000000000000000000000000016906370a082319060240160206040518083038186803b1580156113f257600080fd5b505afa158015611406573d6000803e3d6000fd5b505050506040513d601f19601f8201168201806040525081019061142a9190611d84565b90508061143a5750600092915050565b73ffffffffffffffffffffffffffffffffffffffff831660009081526001602052604081205461148a907f0000000000000000000000000000000000000000000000000000000000000000611e7d565b90508061149b575060009392505050565b7f000000000000000000000000000000000000000000000000000000000000000081141561151e577f00000000000000000000000000000000000000000000000000000000000000008210156114f5575060019392505050565b507f00000000000000000000000000000000000000000000000000000000000000009392505050565b5060019392505050565b6000670de0b6b3a7640000807f000000000000000000000000000000000000000000000000000000000000000061155d610fd4565b610b729086611e40565b60005473ffffffffffffffffffffffffffffffffffffffff1633146115ce5760405162461bcd60e51b815260206004820152601760248201527f63616c6c6572206973206e6f7420746865206f776e65720000000000000000006044820152606401610647565b73ffffffffffffffffffffffffffffffffffffffff81166116315760405162461bcd60e51b815260206004820152601d60248201527f6e6577206f776e657220697320746865207a65726f20616464726573730000006044820152606401610647565b6000805460405173ffffffffffffffffffffffffffffffffffffffff808516939216917f8be0079c531659141344cd1fd0a4f28419497f9722a3daafe3b4186f6b6457e091a3600080547fffffffffffffffffffffffff00000000000000000000000000000000000000001673ffffffffffffffffffffffffffffffffffffffff92909216919091179055565b73ffffffffffffffffffffffffffffffffffffffff81166117215760405162461bcd60e51b815260206004820152600e60248201527f6163636f756e74206973203078300000000000000000000000000000000000006044820152606401610647565b73ffffffffffffffffffffffffffffffffffffffff811660009081526002602052604090205460ff16156117975760405162461bcd60e51b815260206004820152601360248201527f616c72656164792077686974656c6973746564000000000000000000000000006044820152606401610647565b73ffffffffffffffffffffffffffffffffffffffff811660008181526002602090815260409182902080547fffffffffffffffffffffffffffffffffffffffffffffffffffffffffffffff0016600117905590519182527f4790a4adb426ca2345bb5108f6e454eae852a7bf687544cd66a7270dff3a41d691016112f4565b61181e610a6a565b61186a5760405162461bcd60e51b815260206004820152600d60248201527f73616c65206e6f74206f70656e000000000000000000000000000000000000006044820152606401610647565b600034116118ba5760405162461bcd60e51b815260206004820152601260248201527f65746820616d6f756e74206973207a65726f00000000000000000000000000006044820152606401610647565b3460006118c63361086d565b9050600081116119185760405162461bcd60e51b815260206004820152601660248201527f63616e6e6f7420627579206d6f726520746f6b656e73000000000000000000006044820152606401610647565b600061192334611528565b9050600081116119755760405162461bcd60e51b815260206004820152601660248201527f63616e6e6f7420627579207a65726f20746f6b656e73000000000000000000006044820152606401610647565b336000908152600160205260409020541515806119b157507f000000000000000000000000000000000000000000000000000000000000000082105b806119dc57507f00000000000000000000000000000000000000000000000000000000000000008110155b611a285760405162461bcd60e51b815260206004820152601a60248201527f746f6b656e20616d6f756e742062656c6f77206d696e696d756d0000000000006044820152606401610647565b600082821115611acc57829150611a3e82610b34565b611a489085611e7d565b9050611a548185611e7d565b935060008411611acc5760405162461bcd60e51b815260206004820152602360248201527f657468496e207a65726f20616674657220726566756e642063616c63756c617460448201527f696f6e00000000000000000000000000000000000000000000000000000000006064820152608401610647565b3360009081526001602052604081208054849290611aeb908490611ded565b90915550506040517fa9059cbb000000000000000000000000000000000000000000000000000000008152336004820152602481018390527f000000000000000000000000000000000000000000000000000000000000000073ffffffffffffffffffffffffffffffffffffffff169063a9059cbb90604401602060405180830381600087803b158015611b7e57600080fd5b505af1158015611b92573d6000803e3d6000fd5b505050506040513d601f19601f82011682018060405250810190611bb69190611d49565b50604080518581526020810184905233917fcd60aa75dea3072fbc07ae6d7d856b5dc5f4eee88854f5b4abf7b680ef8bc50f910160405180910390a28015611c9257604051600090339083908381818185875af1925050503d8060008114611c3a576040519150601f19603f3d011682016040523d82523d6000602084013e611c3f565b606091505b5050905080611c905760405162461bcd60e51b815260206004820152601160248201527f65746820726566756e64206661696c65640000000000000000000000000000006044820152606401610647565b505b50505050565b805169ffffffffffffffffffff81168114611cb257600080fd5b919050565b600060208284031215611cc957600080fd5b81356109ab81611f2b565b60008060208385031215611ce757600080fd5b823567ffffffffffffffff80821115611cff57600080fd5b818501915085601f830112611d1357600080fd5b813581811115611d2257600080fd5b8660208260051b8501011115611d3757600080fd5b60209290920196919550909350505050565b600060208284031215611d5b57600080fd5b815180151581146109ab57600080fd5b600060208284031215611d7d57600080fd5b5035919050565b600060208284031215611d9657600080fd5b5051919050565b600080600080600060a08688031215611db557600080fd5b611dbe86611c98565b9450602086015193506040860151925060608601519150611de160808701611c98565b90509295509295909350565b60008219821115611e0057611e00611ecd565b500190565b600082611e3b577f4e487b7100000000000000000000000000000000000000000000000000000000600052601260045260246000fd5b500490565b6000817fffffffffffffffffffffffffffffffffffffffffffffffffffffffffffffffff0483118215151615611e7857611e78611ecd565b500290565b600082821015611e8f57611e8f611ecd565b500390565b60007fffffffffffffffffffffffffffffffffffffffffffffffffffffffffffffffff821415611ec657611ec6611ecd565b5060010190565b7f4e487b7100000000000000000000000000000000000000000000000000000000600052601160045260246000fd5b7f4e487b7100000000000000000000000000000000000000000000000000000000600052603260045260246000fd5b73ffffffffffffffffffffffffffffffffffffffff81168114610b3157600080fdfea26469706673582212204ee3e7f3927a19907cbd0506d8ea37560d2decb98d0a52dcd3faa47ceb47423b64736f6c63430008070033",
  "devdoc": {
    "kind": "dev",
    "methods": {},
    "version": 1
  },
  "userdoc": {
    "kind": "user",
    "methods": {},
    "version": 1
  },
  "storageLayout": {
    "storage": [
      {
        "astId": 3,
        "contract": "contracts/tokensale/TokenSalePrivate.sol:TokenSalePrivate",
        "label": "_owner",
        "offset": 0,
        "slot": "0",
        "type": "t_address"
      },
      {
        "astId": 1465,
        "contract": "contracts/tokensale/TokenSalePrivate.sol:TokenSalePrivate",
        "label": "balances",
        "offset": 0,
        "slot": "1",
        "type": "t_mapping(t_address,t_uint256)"
      },
      {
        "astId": 172,
        "contract": "contracts/tokensale/TokenSalePrivate.sol:TokenSalePrivate",
        "label": "whitelist",
        "offset": 0,
        "slot": "2",
        "type": "t_mapping(t_address,t_bool)"
      }
    ],
    "types": {
      "t_address": {
        "encoding": "inplace",
        "label": "address",
        "numberOfBytes": "20"
      },
      "t_bool": {
        "encoding": "inplace",
        "label": "bool",
        "numberOfBytes": "1"
      },
      "t_mapping(t_address,t_bool)": {
        "encoding": "mapping",
        "key": "t_address",
        "label": "mapping(address => bool)",
        "numberOfBytes": "32",
        "value": "t_bool"
      },
      "t_mapping(t_address,t_uint256)": {
        "encoding": "mapping",
        "key": "t_address",
        "label": "mapping(address => uint256)",
        "numberOfBytes": "32",
        "value": "t_uint256"
      },
      "t_uint256": {
        "encoding": "inplace",
        "label": "uint256",
        "numberOfBytes": "32"
      }
    }
  }
}