{
  "address": "0xC39E4F03409ca20e11Bc46a63f1Ffc074891DEd3",
  "abi": [
    {
      "inputs": [
        {
          "internalType": "address",
          "name": "token_",
          "type": "address"
        },
        {
          "internalType": "address",
          "name": "priceFeed_",
          "type": "address"
        },
        {
          "internalType": "uint256",
          "name": "minBuyToken_",
          "type": "uint256"
        },
        {
          "internalType": "uint256",
          "name": "maxBuyToken_",
          "type": "uint256"
        },
        {
          "internalType": "uint256",
          "name": "startTime_",
          "type": "uint256"
        },
        {
          "internalType": "uint256",
          "name": "endTime_",
          "type": "uint256"
        },
        {
          "internalType": "uint256",
          "name": "tokensPerUsd_",
          "type": "uint256"
        }
      ],
      "stateMutability": "nonpayable",
      "type": "constructor"
    },
    {
      "anonymous": false,
      "inputs": [
        {
          "indexed": true,
          "internalType": "address",
          "name": "recipient",
          "type": "address"
        },
        {
          "indexed": false,
          "internalType": "uint256",
          "name": "ethAmount",
          "type": "uint256"
        }
      ],
      "name": "EthWithdraw",
      "type": "event"
    },
    {
      "anonymous": false,
      "inputs": [
        {
          "indexed": true,
          "internalType": "address",
          "name": "previousOwner",
          "type": "address"
        },
        {
          "indexed": true,
          "internalType": "address",
          "name": "newOwner",
          "type": "address"
        }
      ],
      "name": "OwnershipTransferred",
      "type": "event"
    },
    {
      "anonymous": false,
      "inputs": [
        {
          "indexed": true,
          "internalType": "address",
          "name": "beneficiary",
          "type": "address"
        },
        {
          "indexed": false,
          "internalType": "uint256",
          "name": "ethAmount",
          "type": "uint256"
        },
        {
          "indexed": false,
          "internalType": "uint256",
          "name": "tokenAmount",
          "type": "uint256"
        }
      ],
      "name": "TokenPurchase",
      "type": "event"
    },
    {
      "anonymous": false,
      "inputs": [
        {
          "indexed": true,
          "internalType": "address",
          "name": "beneficiary",
          "type": "address"
        },
        {
          "indexed": false,
          "internalType": "uint256",
          "name": "tokenAmount",
          "type": "uint256"
        }
      ],
      "name": "TokenWithdraw",
      "type": "event"
    },
    {
      "anonymous": false,
      "inputs": [
        {
          "indexed": true,
          "internalType": "address",
          "name": "recipient",
          "type": "address"
        },
        {
          "indexed": false,
          "internalType": "uint256",
          "name": "tokenAmount",
          "type": "uint256"
        }
      ],
      "name": "UnsoldTokensWithdraw",
      "type": "event"
    },
    {
      "inputs": [],
      "name": "BASE",
      "outputs": [
        {
          "internalType": "uint256",
          "name": "",
          "type": "uint256"
        }
      ],
      "stateMutability": "view",
      "type": "function"
    },
    {
      "inputs": [
        {
          "internalType": "address",
          "name": "",
          "type": "address"
        }
      ],
      "name": "balances",
      "outputs": [
        {
          "internalType": "uint256",
          "name": "",
          "type": "uint256"
        }
      ],
      "stateMutability": "view",
      "type": "function"
    },
    {
      "inputs": [],
      "name": "buyTokens",
      "outputs": [],
      "stateMutability": "payable",
      "type": "function"
    },
    {
      "inputs": [],
      "name": "endTime",
      "outputs": [
        {
          "internalType": "uint256",
          "name": "",
          "type": "uint256"
        }
      ],
      "stateMutability": "view",
      "type": "function"
    },
    {
      "inputs": [
        {
          "internalType": "uint256",
          "name": "amountEth_",
          "type": "uint256"
        }
      ],
      "name": "ethToToken",
      "outputs": [
        {
          "internalType": "uint256",
          "name": "amountToken",
          "type": "uint256"
        }
      ],
      "stateMutability": "view",
      "type": "function"
    },
    {
      "inputs": [],
      "name": "getEthUsdPrice",
      "outputs": [
        {
          "internalType": "uint256",
          "name": "",
          "type": "uint256"
        }
      ],
      "stateMutability": "view",
      "type": "function"
    },
    {
      "inputs": [
        {
          "internalType": "address",
          "name": "account_",
          "type": "address"
        }
      ],
      "name": "getMaxTokensAllowedToBuyOf",
      "outputs": [
        {
          "internalType": "uint256",
          "name": "",
          "type": "uint256"
        }
      ],
      "stateMutability": "view",
      "type": "function"
    },
    {
      "inputs": [
        {
          "internalType": "address",
          "name": "account_",
          "type": "address"
        }
      ],
      "name": "getMinTokensAllowedToBuyOf",
      "outputs": [
        {
          "internalType": "uint256",
          "name": "",
          "type": "uint256"
        }
      ],
      "stateMutability": "view",
      "type": "function"
    },
    {
      "inputs": [],
      "name": "getTokensLeftForSale",
      "outputs": [
        {
          "internalType": "uint256",
          "name": "",
          "type": "uint256"
        }
      ],
      "stateMutability": "view",
      "type": "function"
    },
    {
      "inputs": [],
      "name": "hasEnded",
      "outputs": [
        {
          "internalType": "bool",
          "name": "",
          "type": "bool"
        }
      ],
      "stateMutability": "view",
      "type": "function"
    },
    {
      "inputs": [],
      "name": "isOpen",
      "outputs": [
        {
          "internalType": "bool",
          "name": "",
          "type": "bool"
        }
      ],
      "stateMutability": "view",
      "type": "function"
    },
    {
      "inputs": [],
      "name": "maxBuyToken",
      "outputs": [
        {
          "internalType": "uint256",
          "name": "",
          "type": "uint256"
        }
      ],
      "stateMutability": "view",
      "type": "function"
    },
    {
      "inputs": [],
      "name": "minBuyToken",
      "outputs": [
        {
          "internalType": "uint256",
          "name": "",
          "type": "uint256"
        }
      ],
      "stateMutability": "view",
      "type": "function"
    },
    {
      "inputs": [],
      "name": "owner",
      "outputs": [
        {
          "internalType": "address",
          "name": "",
          "type": "address"
        }
      ],
      "stateMutability": "view",
      "type": "function"
    },
    {
      "inputs": [],
      "name": "priceFeed",
      "outputs": [
        {
          "internalType": "contract AggregatorV3Interface",
          "name": "",
          "type": "address"
        }
      ],
      "stateMutability": "view",
      "type": "function"
    },
    {
      "inputs": [],
      "name": "renounceOwnership",
      "outputs": [],
      "stateMutability": "nonpayable",
      "type": "function"
    },
    {
      "inputs": [],
      "name": "startTime",
      "outputs": [
        {
          "internalType": "uint256",
          "name": "",
          "type": "uint256"
        }
      ],
      "stateMutability": "view",
      "type": "function"
    },
    {
      "inputs": [],
      "name": "token",
      "outputs": [
        {
          "internalType": "contract IERC20",
          "name": "",
          "type": "address"
        }
      ],
      "stateMutability": "view",
      "type": "function"
    },
    {
      "inputs": [
        {
          "internalType": "uint256",
          "name": "amountToken_",
          "type": "uint256"
        }
      ],
      "name": "tokenToEth",
      "outputs": [
        {
          "internalType": "uint256",
          "name": "amountEth",
          "type": "uint256"
        }
      ],
      "stateMutability": "view",
      "type": "function"
    },
    {
      "inputs": [],
      "name": "tokensPerUsd",
      "outputs": [
        {
          "internalType": "uint256",
          "name": "",
          "type": "uint256"
        }
      ],
      "stateMutability": "view",
      "type": "function"
    },
    {
      "inputs": [
        {
          "internalType": "address",
          "name": "newOwner",
          "type": "address"
        }
      ],
      "name": "transferOwnership",
      "outputs": [],
      "stateMutability": "nonpayable",
      "type": "function"
    },
    {
      "inputs": [
        {
          "internalType": "address",
          "name": "recipient_",
          "type": "address"
        }
      ],
      "name": "transferUnsoldTokens",
      "outputs": [],
      "stateMutability": "nonpayable",
      "type": "function"
    },
    {
      "inputs": [
        {
          "internalType": "address payable",
          "name": "recipient_",
          "type": "address"
        }
      ],
      "name": "withdrawEth",
      "outputs": [],
      "stateMutability": "nonpayable",
      "type": "function"
    }
  ],
  "transactionHash": "0xe0569de7eecc82ba20de880362d45dcd13612181c41ce7814d465e3cb17bd136",
  "args": [
    "0xd1DBEE5d30eDAac4A4340358E269E7F14E09E26E",
    "0x5f4eC3Df9cbd43714FE2740f5E3616155c5b8419",
    "6667000000000000000000",
    "333334000000000000000000",
    1631286000,
    1633903199,
    "67000000000000000000"
  ],
  "solcInputHash": "8a90a7c6ddcef4835a05215dfdc762ca",
  "bytecode": "0x6101606040523480156200001257600080fd5b5060405162001e0038038062001e00833981016040819052620000359162000303565b600080546001600160a01b03191633908117825560405189928992899289928992899289928892917f8be0079c531659141344cd1fd0a4f28419497f9722a3daafe3b4186f6b6457e0908290a36001600160a01b038116620000d25760405162461bcd60e51b815260206004820152601160248201527007072696365466565645f2069732030783607c1b60448201526064015b60405180910390fd5b60601b6001600160601b0319166080526001600160a01b0387166200012a5760405162461bcd60e51b815260206004820152600d60248201526c0746f6b656e5f2069732030783609c1b6044820152606401620000c9565b42831015620001715760405162461bcd60e51b8152602060048201526012602482015271737461727454696d655f20746f6f206c6f7760701b6044820152606401620000c9565b828211620001c25760405162461bcd60e51b815260206004820152601d60248201527f656e6454696d655f206e6f742061626f766520737461727454696d655f0000006044820152606401620000c9565b60008111620002095760405162461bcd60e51b81526020600482015260126024820152710746f6b656e735065725573645f20697320360741b6044820152606401620000c9565b600085116200024f5760405162461bcd60e51b815260206004820152601160248201527006d696e427579546f6b656e5f206973203607c1b6044820152606401620000c9565b848411620002ac5760405162461bcd60e51b815260206004820152602360248201527f6d6178427579546f6b656e5f206e6f742061626f7665206d696e427579546f6b604482015262656e5f60e81b6064820152608401620000c9565b60609690961b6001600160601b03191660a05260c09190915260e05261010093909352610120525061014052506200036a95505050505050565b80516001600160a01b0381168114620002fe57600080fd5b919050565b600080600080600080600060e0888a0312156200031f57600080fd5b6200032a88620002e6565b96506200033a60208901620002e6565b604089015160608a015160808b015160a08c015160c0909c01519a9d939c50919a90999198509650945092505050565b60805160601c60a05160601c60c05160e0516101005161012051610140516119a26200045e600039600081816104ca015281816108af0152818161153901526115700152600081816103e5015281816111320152818161115c0152818161159801526115cb0152600081816103a90152818161095101526116090152600081816101f90152818161047201528181610522015281816109250152610a8701526000818161030001526108fa0152600081816104fe015281816107f901528181610bef01528181610d1c01528181610f2a015281816112c801526114830152600081816102a70152610df201526119a26000f3fe6080604052600436106101805760003560e01c8063a0a8045e116100d6578063e27a24891161007f578063f2fde38b11610059578063f2fde38b14610498578063f6d8375c146104b8578063fc0c546a146104ec57600080fd5b8063e27a248914610427578063ec342ad014610447578063ecb70fb71461046357600080fd5b8063d0febe4c116100b0578063d0febe4c146103cb578063db1b1d6e146103d3578063db3fbfc91461040757600080fd5b8063a0a8045e1461036d578063a208de0014610382578063b944a6631461039757600080fd5b806370b2a30f1161013857806378e979251161011257806378e97925146102ee5780638da5cb5b146103225780639d0880a31461034d57600080fd5b806370b2a30f14610260578063715018a614610280578063741bef1a1461029557600080fd5b80633197cbb6116101695780633197cbb6146101e75780633eec74ae1461021b57806347535d7b1461023b57600080fd5b806325e160631461018557806327e235e3146101a7575b600080fd5b34801561019157600080fd5b506101a56101a03660046117b0565b610520565b005b3480156101b357600080fd5b506101d46101c23660046117b0565b60016020526000908152604090205481565b6040519081526020015b60405180910390f35b3480156101f357600080fd5b506101d47f000000000000000000000000000000000000000000000000000000000000000081565b34801561022757600080fd5b506101d46102363660046117b0565b6107b1565b34801561024757600080fd5b506102506108f6565b60405190151581526020016101de565b34801561026c57600080fd5b506101d461027b3660046117ef565b61094d565b34801561028c57600080fd5b506101a56109af565b3480156102a157600080fd5b506102c97f000000000000000000000000000000000000000000000000000000000000000081565b60405173ffffffffffffffffffffffffffffffffffffffff90911681526020016101de565b3480156102fa57600080fd5b506101d47f000000000000000000000000000000000000000000000000000000000000000081565b34801561032e57600080fd5b5060005473ffffffffffffffffffffffffffffffffffffffff166102c9565b34801561035957600080fd5b506101a56103683660046117b0565b610a85565b34801561037957600080fd5b506101d4610ded565b34801561038e57600080fd5b506101d4610ef9565b3480156103a357600080fd5b506101d47f000000000000000000000000000000000000000000000000000000000000000081565b6101a5610fb9565b3480156103df57600080fd5b506101d47f000000000000000000000000000000000000000000000000000000000000000081565b34801561041357600080fd5b506101d46104223660046117b0565b61143b565b34801561043357600080fd5b506101d46104423660046117ef565b6115fb565b34801561045357600080fd5b506101d4670de0b6b3a764000081565b34801561046f57600080fd5b507f00000000000000000000000000000000000000000000000000000000000000004211610250565b3480156104a457600080fd5b506101a56104b33660046117b0565b61163a565b3480156104c457600080fd5b506101d47f000000000000000000000000000000000000000000000000000000000000000081565b3480156104f857600080fd5b506102c97f000000000000000000000000000000000000000000000000000000000000000081565b7f000000000000000000000000000000000000000000000000000000000000000042116105945760405162461bcd60e51b815260206004820152600e60248201527f73616c65206e6f7420656e64656400000000000000000000000000000000000060448201526064015b60405180910390fd5b60005473ffffffffffffffffffffffffffffffffffffffff1633146105fb5760405162461bcd60e51b815260206004820152601760248201527f63616c6c6572206973206e6f7420746865206f776e6572000000000000000000604482015260640161058b565b73ffffffffffffffffffffffffffffffffffffffff811661065e5760405162461bcd60e51b815260206004820152601160248201527f726563697069656e745f20697320307830000000000000000000000000000000604482015260640161058b565b47806106ac5760405162461bcd60e51b815260206004820152601260248201527f6e6f2065746820746f2077697468647261770000000000000000000000000000604482015260640161058b565b60008273ffffffffffffffffffffffffffffffffffffffff168260405160006040518083038185875af1925050503d8060008114610706576040519150601f19603f3d011682016040523d82523d6000602084013e61070b565b606091505b505090508061075c5760405162461bcd60e51b815260206004820152601c60248201527f776974686472617720657468207472616e73666572206661696c656400000000604482015260640161058b565b8273ffffffffffffffffffffffffffffffffffffffff167f109ee141209f6239a23d90572cc3e0474bd55208d82e0b5ad378d8ee7d9223ea836040516107a491815260200190565b60405180910390a2505050565b6040517f70a08231000000000000000000000000000000000000000000000000000000008152306004820152600090819073ffffffffffffffffffffffffffffffffffffffff7f000000000000000000000000000000000000000000000000000000000000000016906370a082319060240160206040518083038186803b15801561083b57600080fd5b505afa15801561084f573d6000803e3d6000fd5b505050506040513d601f19601f820116820180604052508101906108739190611808565b9050806108835750600092915050565b73ffffffffffffffffffffffffffffffffffffffff83166000908152600160205260408120546108d3907f0000000000000000000000000000000000000000000000000000000000000000611901565b9050806108e4575060009392505050565b818111156108ef5750805b9392505050565b60007f0000000000000000000000000000000000000000000000000000000000000000421015801561094857507f00000000000000000000000000000000000000000000000000000000000000004211155b905090565b60007f0000000000000000000000000000000000000000000000000000000000000000610978610ded565b670de0b6b3a764000061098b81866118c4565b61099591906118c4565b61099f9190611889565b6109a99190611889565b92915050565b60005473ffffffffffffffffffffffffffffffffffffffff163314610a165760405162461bcd60e51b815260206004820152601760248201527f63616c6c6572206973206e6f7420746865206f776e6572000000000000000000604482015260640161058b565b6000805460405173ffffffffffffffffffffffffffffffffffffffff909116907f8be0079c531659141344cd1fd0a4f28419497f9722a3daafe3b4186f6b6457e0908390a3600080547fffffffffffffffffffffffff0000000000000000000000000000000000000000169055565b7f00000000000000000000000000000000000000000000000000000000000000004211610af45760405162461bcd60e51b815260206004820152600e60248201527f73616c65206e6f7420656e646564000000000000000000000000000000000000604482015260640161058b565b60005473ffffffffffffffffffffffffffffffffffffffff163314610b5b5760405162461bcd60e51b815260206004820152601760248201527f63616c6c6572206973206e6f7420746865206f776e6572000000000000000000604482015260640161058b565b73ffffffffffffffffffffffffffffffffffffffff8116610bbe5760405162461bcd60e51b815260206004820152601160248201527f726563697069656e745f20697320307830000000000000000000000000000000604482015260640161058b565b6040517f70a082310000000000000000000000000000000000000000000000000000000081523060048201526000907f000000000000000000000000000000000000000000000000000000000000000073ffffffffffffffffffffffffffffffffffffffff16906370a082319060240160206040518083038186803b158015610c4657600080fd5b505afa158015610c5a573d6000803e3d6000fd5b505050506040513d601f19601f82011682018060405250810190610c7e9190611808565b905060008111610cd05760405162461bcd60e51b815260206004820152601560248201527f6e6f20746f6b656e7320746f2077697468647261770000000000000000000000604482015260640161058b565b6040517fa9059cbb00000000000000000000000000000000000000000000000000000000815273ffffffffffffffffffffffffffffffffffffffff8381166004830152602482018390527f0000000000000000000000000000000000000000000000000000000000000000169063a9059cbb90604401602060405180830381600087803b158015610d6057600080fd5b505af1158015610d74573d6000803e3d6000fd5b505050506040513d601f19601f82011682018060405250810190610d9891906117cd565b508173ffffffffffffffffffffffffffffffffffffffff167f70d0b5a290618fe3d16c5abedf3a987b0cccc54269c46ed2f6ce3081f232ebeb82604051610de191815260200190565b60405180910390a25050565b6000807f000000000000000000000000000000000000000000000000000000000000000073ffffffffffffffffffffffffffffffffffffffff1663feaf968c6040518163ffffffff1660e01b815260040160a06040518083038186803b158015610e5657600080fd5b505afa158015610e6a573d6000803e3d6000fd5b505050506040513d601f19601f82011682018060405250810190610e8e9190611821565b50505091505060008113610ee45760405162461bcd60e51b815260206004820152600f60248201527f696e636f72726563742070726963650000000000000000000000000000000000604482015260640161058b565b610ef3816402540be4006118c4565b91505090565b6040517f70a082310000000000000000000000000000000000000000000000000000000081523060048201526000907f000000000000000000000000000000000000000000000000000000000000000073ffffffffffffffffffffffffffffffffffffffff16906370a082319060240160206040518083038186803b158015610f8157600080fd5b505afa158015610f95573d6000803e3d6000fd5b505050506040513d601f19601f820116820180604052508101906109489190611808565b610fc16108f6565b61100d5760405162461bcd60e51b815260206004820152600d60248201527f73616c65206e6f74206f70656e00000000000000000000000000000000000000604482015260640161058b565b6000341161105d5760405162461bcd60e51b815260206004820152601260248201527f65746820616d6f756e74206973207a65726f0000000000000000000000000000604482015260640161058b565b346000611069336107b1565b9050600081116110bb5760405162461bcd60e51b815260206004820152601660248201527f63616e6e6f7420627579206d6f726520746f6b656e7300000000000000000000604482015260640161058b565b60006110c6346115fb565b9050600081116111185760405162461bcd60e51b815260206004820152601660248201527f63616e6e6f7420627579207a65726f20746f6b656e7300000000000000000000604482015260640161058b565b3360009081526001602052604090205415158061115457507f000000000000000000000000000000000000000000000000000000000000000082105b8061117f57507f00000000000000000000000000000000000000000000000000000000000000008110155b6111cb5760405162461bcd60e51b815260206004820152601a60248201527f746f6b656e20616d6f756e742062656c6f77206d696e696d756d000000000000604482015260640161058b565b60008282111561126f578291506111e18261094d565b6111eb9085611901565b90506111f78185611901565b93506000841161126f5760405162461bcd60e51b815260206004820152602360248201527f657468496e207a65726f20616674657220726566756e642063616c63756c617460448201527f696f6e0000000000000000000000000000000000000000000000000000000000606482015260840161058b565b336000908152600160205260408120805484929061128e908490611871565b90915550506040517fa9059cbb000000000000000000000000000000000000000000000000000000008152336004820152602481018390527f000000000000000000000000000000000000000000000000000000000000000073ffffffffffffffffffffffffffffffffffffffff169063a9059cbb90604401602060405180830381600087803b15801561132157600080fd5b505af1158015611335573d6000803e3d6000fd5b505050506040513d601f19601f8201168201806040525081019061135991906117cd565b50604080518581526020810184905233917fcd60aa75dea3072fbc07ae6d7d856b5dc5f4eee88854f5b4abf7b680ef8bc50f910160405180910390a2801561143557604051600090339083908381818185875af1925050503d80600081146113dd576040519150601f19603f3d011682016040523d82523d6000602084013e6113e2565b606091505b50509050806114335760405162461bcd60e51b815260206004820152601160248201527f65746820726566756e64206661696c6564000000000000000000000000000000604482015260640161058b565b505b50505050565b6040517f70a08231000000000000000000000000000000000000000000000000000000008152306004820152600090819073ffffffffffffffffffffffffffffffffffffffff7f000000000000000000000000000000000000000000000000000000000000000016906370a082319060240160206040518083038186803b1580156114c557600080fd5b505afa1580156114d9573d6000803e3d6000fd5b505050506040513d601f19601f820116820180604052508101906114fd9190611808565b90508061150d5750600092915050565b73ffffffffffffffffffffffffffffffffffffffff831660009081526001602052604081205461155d907f0000000000000000000000000000000000000000000000000000000000000000611901565b90508061156e575060009392505050565b7f00000000000000000000000000000000000000000000000000000000000000008114156115f1577f00000000000000000000000000000000000000000000000000000000000000008210156115c8575060019392505050565b507f00000000000000000000000000000000000000000000000000000000000000009392505050565b5060019392505050565b6000670de0b6b3a7640000807f0000000000000000000000000000000000000000000000000000000000000000611630610ded565b61098b90866118c4565b60005473ffffffffffffffffffffffffffffffffffffffff1633146116a15760405162461bcd60e51b815260206004820152601760248201527f63616c6c6572206973206e6f7420746865206f776e6572000000000000000000604482015260640161058b565b73ffffffffffffffffffffffffffffffffffffffff81166117045760405162461bcd60e51b815260206004820152601d60248201527f6e6577206f776e657220697320746865207a65726f2061646472657373000000604482015260640161058b565b6000805460405173ffffffffffffffffffffffffffffffffffffffff808516939216917f8be0079c531659141344cd1fd0a4f28419497f9722a3daafe3b4186f6b6457e091a3600080547fffffffffffffffffffffffff00000000000000000000000000000000000000001673ffffffffffffffffffffffffffffffffffffffff92909216919091179055565b805169ffffffffffffffffffff811681146117ab57600080fd5b919050565b6000602082840312156117c257600080fd5b81356108ef81611947565b6000602082840312156117df57600080fd5b815180151581146108ef57600080fd5b60006020828403121561180157600080fd5b5035919050565b60006020828403121561181a57600080fd5b5051919050565b600080600080600060a0868803121561183957600080fd5b61184286611791565b945060208601519350604086015192506060860151915061186560808701611791565b90509295509295909350565b6000821982111561188457611884611918565b500190565b6000826118bf577f4e487b7100000000000000000000000000000000000000000000000000000000600052601260045260246000fd5b500490565b6000817fffffffffffffffffffffffffffffffffffffffffffffffffffffffffffffffff04831182151516156118fc576118fc611918565b500290565b60008282101561191357611913611918565b500390565b7f4e487b7100000000000000000000000000000000000000000000000000000000600052601160045260246000fd5b73ffffffffffffffffffffffffffffffffffffffff8116811461196957600080fd5b5056fea2646970667358221220f6adcd6c9047802b111cebcb85f40e9c938c23cb0e5017aa17b6b758ad20480f64736f6c63430008070033",
  "devdoc": {
    "kind": "dev",
    "methods": {},
    "version": 1
  },
  "userdoc": {
    "kind": "user",
    "methods": {},
    "version": 1
  },
  "storageLayout": {
    "storage": [
      {
        "astId": 3,
        "contract": "contracts/tokensale/TokenSalePresale.sol:TokenSalePresale",
        "label": "_owner",
        "offset": 0,
        "slot": "0",
        "type": "t_address"
      },
      {
        "astId": 1395,
        "contract": "contracts/tokensale/TokenSalePresale.sol:TokenSalePresale",
        "label": "balances",
        "offset": 0,
        "slot": "1",
        "type": "t_mapping(t_address,t_uint256)"
      }
    ],
    "types": {
      "t_address": {
        "encoding": "inplace",
        "label": "address",
        "numberOfBytes": "20"
      },
      "t_mapping(t_address,t_uint256)": {
        "encoding": "mapping",
        "key": "t_address",
        "label": "mapping(address => uint256)",
        "numberOfBytes": "32",
        "value": "t_uint256"
      },
      "t_uint256": {
        "encoding": "inplace",
        "label": "uint256",
        "numberOfBytes": "32"
      }
    }
  }
}